:100000000080002015D8000045D8000047D8000027
:1000100049D800004BD800004DD800000000000077
:100020000000000000000000000000004FD80000A9
:10003000000000000000000051D8000053D800006C
:1000400055D8000055D8000021D5000055D8000033
:1000500021C6000055D8000039C9000055D800005D
:1000600055D80000F1CD000055D8000055D800004B
:1000700055D8000029D0000055D8000055D8000000
:1000800045CE000039CB000055D8000055D80000FF
:1000900055D8000055D8000055D8000055D80000AC
:1000A00055D8000055D8000055D8000055D800009C
:1000B00055D8000055D800000000000000000000E6
:1000C00055D8000055D8000055D8000055D800007C
:1000D00055D8000055D800000000000000000000C6
:1000E0000000000000000000000000000000000010
:1000F0000000000000000000000000000000000000
:1001000000000000000000000000000000000000EF
:1001100000000000000000000000000000000000DF
:1004000010B5054C227832B9044B13B10448AFF350
:1004100000800123237010BD500200200000000066
:100420005406010008B5034B1BB103490348AFF361
:10043000008008BD000000005402002054060100A6
:10044000134B002B08BF114B9D46A3F5803A0021AA
:100450008B460F461148124A121A00F077F80D4BDE
:10046000002B00D098470C4B002B00D09847002061
:10047000002104000D000B4800F016F800F042F8CF
:100480002000290001F0AEF900F014F80000080087
:10049000008000200000000000000000500200204A
:1004A00050260020DD040000002301461A461846AD
:1004B00000F054B808B5074B044613B1002100F012
:1004C000AFF8054B1868836A03B19847204600F0DF
:1004D00009F900BF21060000BCF3000038B5074D44
:1004E000074C641BA4101CB9BDE838400EF060BF77
:1004F000013C55F824309847F5E700BF480200203A
:100500004C02002070B50D4D0D4C641BA41000264C
:10051000A64209D10B4D0C4C0EF044FF641BA410F5
:100520000026A64205D170BD55F8043B9847013618
:10053000EEE755F8043B98470136F2E74402002005
:1005400044020020440200204802002002440346E6
:10055000934200D1704703F8011BF9E72DE9F843F6
:10056000DFF8B8800646D8F800001F460D469146D1
:1005700000F0B4F8254B1C6834B9254C1C60254BA1
:1005800013B11B68C4F8883063681F2B07DDD8F8E7
:10059000000000F0A5F84FF0FF30BDE8F8834EB33F
:1005A000D4F8880088B91C4B23B9D8F8000000F0B3
:1005B00096F8F0E74FF48470AFF300800028F4D091
:1005C0000023C0E94033C4F88800636840F82390F2
:1005D00001229A4000EB8301D0F800311343022E30
:1005E000C0F80031C1F8807002BFD0F804311A435E
:1005F000C0F804216368D8F800005A1C0233626016
:1006000044F8235000F06CF80020C6E7F802002000
:100610006C020020000000000000000064000020C8
:100620002DE9F74F2B4CDFF8B080074620680E46C7
:1006300000F054F8A346D8F8005035B9DBF80000B4
:1006400003B0BDE8F04F00F04BB86C68D5F888A057
:10065000013C05F10809002CF0DB56B1BAF1000F9E
:1006600001D1013CF7E70AF1800252F82420B2429E
:10067000F7D1696859F824200139A1421ABF002333
:1006800049F824306C60002AEBD06B680193BAF112
:10069000000F07D0DAF80011012303FA04FC1CEA6A
:1006A000010F09D190470C4B69681A68019B994268
:1006B000C1D19542D5D0BEE7DAF804015AF824102A
:1006C0001CEA000F02D138469047ECE708469047F5
:1006D000E9E700BF64000020F8020020704770477F
:1006E00070470000FEE700BF704700BF704700BFC3
:1006F00070B50446054614F8011B0648064E03F083
:1007000011FB083514F8011B304603F00BFBAC421B
:10071000F8D170BDC0F30000C8F3000010B58CB074
:1007200009F082F8082807D009F07EF80146214830
:1007300003F0F8FA0CB010BD044609F061F8224647
:10074000014604A80DF0CCFF1B4B059A9A4207D036
:1007500009F06AF80146194803F0E4FA0CB010BD3C
:1007600008A801F07DFA0F2009F000F9014606A85B
:1007700008F04EFD124803F0D5FA06A8FFF7B8FFBF
:10078000104803F0CFFA1048FFF7B2FFBDF82C1065
:10079000BDF82A20BDF828300093CDE90121BDF82D
:1007A0002630BDF822200499084803F0BBFA0CB0AB
:1007B00010BD00BFD0F30000EFBEADDEF4F30000CB
:1007C0001CF4000028F400009C2400202CF40000FD
:1007D0000346012B084605D0022B09D02BB1064950
:1007E0000DF0DEBF05490DF0DBBF05490DF0D8BFA8
:1007F00004490DF0D5BF00BF60F4000050F40000C4
:1008000048F4000058F400000346012B084604D0C9
:10081000022B05D004490DF0C3BF04490DF0C0BF41
:1008200003490DF0BDBF00BF60F4000064F4000098
:1008300068F40000032813D8DFE800F0060A0E026F
:10084000084609490DF0ACBF084608490DF0A8BF9D
:10085000084607490DF0A4BF084606490DF0A0BFA1
:10086000084605490DF09CBF78F400006CF40000C8
:1008700070F4000074F4000060F40000031F0846E8
:10088000302B1AD8DFE803F01C1919191F19191990
:1008900022191919191919192519191928191919A4
:1008A00019191919191919192B1919192E19191991
:1008B000191919191919191931000D490DF070BFBD
:1008C0000C490DF06DBF0C490DF06ABF0B490DF0DE
:1008D00067BF0B490DF064BF0A490DF061BF0A49BB
:1008E0000DF05EBF09490DF05BBF09490DF058BF1F
:1008F00060F4000078F4000094F400007CF4000040
:10090000A4F400008CF40000A0F4000084F40000C3
:100910009CF4000028B1032807D0084605490DF0D3
:100920003FBF084604490DF03BBF084603490DF0A0
:1009300037BF00BF60F40000A8F40000ACF4000072
:1009400070B584B004AC04E90300A2BB03981D4950
:10095000C0F34255C0F30444C5F1060504EB84041A
:10096000C5EB051504EB4505C0F34234C4F106049C
:10097000C0F3042000EB8000C4EB041400EB44043B
:10098000A2F13332ADB2A2FB0506A4B2F608A2FB77
:100990000402D20806EB8600A5EB4005184602EBE0
:1009A0008203ADB2A4EB4303009601959BB203F022
:1009B000D7F904B070BD0449184604B0BDE87040D2
:1009C00003F0CEB9B0F40000D8F4000082B010B546
:1009D0009EB001AC84E807002A48219303F0A2F9F5
:1009E0009DF80410284803F09DF99DF8050005A91D
:1009F000FFF70AFF05A9254803F094F99DF80600C2
:100A000005A9FFF73BFF05A9214803F08BF99DF8E5
:100A1000070005A9FFF70EFF05A91E4803F082F99C
:100A20009DF809209DF808101B4803F07BF99DF8FC
:100A30000A101A4803F076F99DF80B0005A9FFF794
:100A4000C7FE05A9164803F06DF99DF80C0005A92D
:100A5000FFF760FF05A9134803F064F9BDF80E1015
:100A6000114803F05FF9DDE92212219805ABFFF789
:100A700067FF05A90D4803F055F91EB0BDE8104009
:100A800002B07047FCF400001CF5000030F50000D7
:100A90003CF5000048F5000058F5000074F5000032
:100AA00084F5000098F50000A8F50000BCF50000F2
:100AB0002DE9F047038840F25915AB428CB004464B
:100AC00000F0A180B3F5AD7F164634D3B3F52F7F88
:100AD00000F0ED8040F2CD22934240F01481A7480F
:100AE00004F0BAF9002836D0A54FDFF80083BA89A0
:100AF000B8F800309A4240F2BD80A14EA14D07E007
:100B000003F010F9BA89B8F800309A4240F2B28086
:100B10000121304602F058FA03462846002BEFD058
:100B200096480C2104F07AF94FF42F7301202380AA
:100B30000CB0BDE8F087002B00F0A68040F22D102D
:100B4000834240F0E080904B1B788B4207D001201D
:100B50000CB0BDE8F08700200CB0BDE8F0878B49F1
:100B6000052230460DF02CFE002800F0F480884964
:100B7000042230460DF024FE002800F0F88085495C
:100B8000052230460DF01CFE002840F037817C4FD6
:100B9000814DDFF85C82814907F1080207F10C03FF
:100BA000CDE9003230462B4642460DF0C1FD2B8880
:100BB000B8F80020B9897A483A707B7003F0B2F82F
:100BC0003846FFF795FDB968764803F0ABF87648EC
:100BD000394608F021FB0546002840F01D82DFF869
:100BE0000C82724803F09EF8A8F800502B4614E0DF
:100BF000BB68F3B1012A00F0DB82604804F018F909
:100C000040F2591323805D4804F026F90028A2D051
:100C1000DFF8D8815A4FB8F80030BA899A4229D9FA
:100C2000634B644D9B68DFF8CCA1DFF8CC91049353
:100C30002E4608F02BFE0821304608F037FE002132
:100C4000049B50469847B8F8003048460133A8F84E
:100C5000003003F067F85448FFF74AFD296856480A
:100C600003F060F82B68B8F80020B989013391428D
:100C70002B60BDD8514803F055F8514803F052F8A5
:100C800040F22D13238062E702F0B6FF02464D4B7F
:100C900051680068926807C302F0B2FF03C84A4B6C
:100CA00083E8030002F0BCFF484B1870E5E7484BAF
:100CB0001B788B4205D0314804F0CEF800283FF471
:100CC00046AF2E4804F0C8F800284BD1336803BB68
:100CD00040482B4F03F026F8DFF81081BA89B8F8A6
:100CE000003001339BB29A42A8F80030C2D9BB68E9
:100CF000002B3FF402AF2148002104F08FF840F2AE
:100D0000CD232380EBE60023032023800CB0BDE835
:100D1000F087D6E90201304B234D194F00220CF029
:100D2000F9FF0DF091FA0290D6E904012A4B002256
:100D30000CF0F0FF2B787A78059304920DF084FA8A
:100D40003E78697800910190059B049A23483146CA
:100D500002F0E8FFC0E7144B21485A78197802F0F6
:100D6000E1FF8AE71F48064F02F0DCFFB4E70246C6
:100D700001461D4802F0D6FF7FE700BF00030020B8
:100D80001C03002008FC0000A41A0020C8F5000085
:100D9000E8F5000000F600003003002008F600002F
:100DA00020F6000040F600009C24002068F60000B9
:100DB000A8010100780000207CF6000088F6000001
:100DC000C4F5000010030020340300202C03002091
:100DD000201A00205CFC00000000594030FC00009C
:100DE000D0F5000020FC0000F0F50000FC0200201F
:100DF0002E030020ED06000074F60000BB490B2214
:100E000030460DF0DDFC002800F00A81B8490B22C5
:100E100030460DF0D5FC002800F00881B5490722C6
:100E200030460DF0CDFC002800F04381B249072286
:100E300030460DF0C5FC002800F04581AF4908227E
:100E400030460DF0BDFC002800F0BB81AC49082203
:100E500030460DF0B5FC002800F0CA81A9490922EE
:100E600030460DF0ADFC002800F0DE81A6490922D5
:100E700030460DF0A5FC0546002800F00582A34988
:100E80000A2230460DF09CFC002800F01382A04995
:100E90000A2230460DF094FC002800F087829D491C
:100EA0000A2230460DF08CFC002800F099829A4905
:100EB0000A2230460DF084FC002800F08482974915
:100EC000092230460DF07CFC002800F00B83944989
:100ED000092230460DF074FC002800F0AF829149E1
:100EE0000C2230460DF06CFC002800F090828E49F8
:100EF0000C2230460DF064FC002800F077828B490C
:100F00000B2230460DF05CFC002800F04583884938
:100F10000B2230460DF054FC002800F02B8385494D
:100F2000092230460DF04CFC002800F01C83824959
:100F3000092230460DF044FC002800F006837F496A
:100F4000092230460DF03CFC002800F07C837C49EF
:100F5000092230460DF034FC002800F03683794930
:100F6000062230460DF02CFC002800F04283764922
:100F7000082230460DF024FC002800F0C982734995
:100F8000102230460DF01CFC002800F0DF81704973
:100F90000A2230460DF014FC002800F0CD816D4986
:100FA000052230460DF00CFC002840F0C0816A4F4D
:100FB0006A4DDFF8F4816A4907F1080207F10C0372
:100FC000CDE9003230462B4642460DF0B1FBB8F871
:100FD00000202B8863483A707B7002F0A3FE3846ED
:100FE000FFF786FBB989BA685F4802F09BFE5F484D
:100FF000394608F011F978B95D48394608F00CF91E
:101000000546002840F08F81DFF8A081594802F0A2
:1010100089FEA8F800506AE5574802F083FE2CE6E6
:10102000564B5748197802F07DFE26E6554D564935
:1010300030462A460DF07CFB2B88013B062B33D82B
:10104000DFE803F02B241D160F3204004F494B4BF1
:101050009320072208701A7019784D4802F062FE3A
:101060000BE64A49454BC020052208701A70F3E789
:101070004649424B9520042208701A70ECE7434918
:101080003E4BC520032208701A70E5E73F493B4BF1
:10109000C220022208701A70DEE73C49374BC92093
:1010A000012208701A70D7E73A4802F03BFE334B32
:1010B000D2E7324B09A95878FFF7A6FB09A93648B1
:1010C00002F030FED9E53549304609AA0DF030FB73
:1010D000334909A80DF05AFB00287CD1274B314831
:1010E00001225A7002F01EFEC7E500BF94F6000010
:1010F000B0F60000FCF6000010F7000058F7000002
:1011000078F70000C8F70000E0F7000024F80000BE
:1011100030F8000060F800006CF800009CF8000057
:10112000A8F80000D8F80000F8F8000074F90000F2
:1011300090F90000ECF90000F8F9000024FA000032
:1011400030FA000040FB000048FB000054FB0000A8
:1011500078FB000084FB00001C030020300300200B
:101160008CFB0000A4FB0000B8FB00009C240020C6
:10117000C8FC000068F600004CF6000010030020D8
:10118000A0F60000A0030020BCF6000034030020FD
:10119000E8F60000D0F6000004F7000018F70000A1
:1011A00064F4000024F700002E030020FC0200205D
:1011B000DB01A9484FF47A71B3FBF1F103F02EFE85
:1011C0001EE5A64B09A99878FFF758FB09A9A44882
:1011D00002F0A8FD51E5A34909A80DF0D7FA0028AF
:1011E0004ED19E4BA04802225A7002F09BFD44E56E
:1011F0009E4D9F4930462A460DF09AFA2988B1F54E
:10120000806F7ED024D8B1F5807F73D016D8402966
:1012100000F0828080297BD1904B96481422802157
:101220009A7002F07FFD28E58C4B09A9D878FFF76A
:1012300001FB09A9904802F075FD1EE5B1F5007F9C
:1012400066D1864B8B4834229A7002F06BFD14E510
:10125000B1F5006F00F0A380B1F5805F06D17F4B40
:1012600084480C229A7002F05DFD06E5B1F5C06F6E
:101270004ED17A4B7F4818229A7002F053FDFCE45D
:101280007E4802F04FFDF8E47D4F7E4930463A46F5
:101290000DF04EFA397820291BD011D8082923D017
:1012A00010291DD16D4B784801221021DA7002F00F
:1012B00039FDE2E4694B7548197902F033FDDCE44D
:1012C00040290DD1654B70480322DA7002F02AFDE7
:1012D000D3E4624B6C480222DA7002F023FDCCE4C6
:1012E0006B4802F01FFDC8E45C4B6748DD7002F0FC
:1012F00019FDC2E4594B5F4824229A7002F012FD96
:10130000BBE4564B5B4808229A7002F00BFDB4E434
:10131000604802F007FDB0E4504B564804229A7032
:1013200002F000FDA9E45C4802F0FCFCA5E43146B3
:101330005A4802F0F7FCA0E4594B484A5968CDE9F5
:10134000001007CA1B68FFF741FB96E402F054FC4B
:10135000024600685168926809AB07C302F050FC6E
:1013600003C807AE86E8030002F05AFC0C220546CB
:1013700009A93A480DF0A6F948B94948314608226A
:101380000DF0A0F918B9474B1B78AB4203D0464883
:1013900002F0C8FC71E4454802F0C4FC6DE42F4B38
:1013A000344828229A7002F0BDFC66E42F4D404973
:1013B00030462A460DF0BCF9284B29783D48197172
:1013C00002F0B0FC59E4294D3B4930462A460DF065
:1013D000AFF9224B29783948597102F0A3FC4CE44B
:1013E0001E4B3748597902F09DFC46E4354909AA5D
:1013F00030460DF09DF9344909A80DF0C7F90346B0
:1014000078B9164A3148D37102F08CFC35E4134B9D
:1014100009A9D879FFF7DCF909A92D4802F082FC67
:101420002BE42C4909A80DF0B1F9002861D10B4B30
:1014300029480122DA7102F075FC1EE4104D27499B
:1014400030462A460DF074F9044B297824489971E6
:1014500002F068FC11E400BF00030020100300202C
:1014600064F7000068F4000034F70000A0030020D7
:1014700084F7000094F70000D4F7000044F7000060
:10148000A2030020ECF70000FCF7000050F8000079
:1014900010F80000ACF70000D0FB00006CFC00006E
:1014A000340300202C03002068FB00006CFB0000CC
:1014B0003CF800004CF8000078F8000088F80000C4
:1014C0008CF8000008F9000048F400001CF9000046
:1014D000E8F8000050F4000030F90000B4F8000013
:1014E000C4F800009C4B9D48997902F01BFCFFF763
:1014F000C4BB9B4909A80DF049F9002840F0B5800C
:10150000954B98480222DA7102F00CFCFFF7B5BB4C
:1015100002F072FB0346904D9A6859680068924E3B
:101520002B4607C302F06CFB03C886E8030002F0F9
:1015300077FB73688D4ACDE900301070336895E809
:101540000700FFF743FAFFF798BB894D89493046FA
:101550002A460DF0EDF8804B29888748598102F022
:10156000E1FBFFF78ABB7C4B8448598902F0DAFB28
:10157000FFF783BB824909AA30460DF0D9F88149AB
:1015800009A80DF003F9034688B9734A7E4813721F
:1015900002F0C8FBFFF771BB6F4B09A9187AFFF780
:1015A000B9F909A9794802F0BDFBFFF766BB784994
:1015B00009A80DF0EBF8002852D1674B75480322BB
:1015C0001A7202F0AFFBFFF758BBDFF8A481724933
:1015D000424630460DF0ACF8B8F80070002F72D0DB
:1015E000012F5FD0022F45D06C4802F09BFBFFF724
:1015F00044BB594D5C4E5D4F284602F05BFA39788A
:10160000304602F06FFA02F0F7FA024600685168BD
:1016100092682B4607C302F0F3FA03C886E803007A
:1016200002F0FEFA387001F00BFE5D4B1B6A984722
:101630003A787368CDE9003295E807003368FFF720
:10164000C5F9FFF71ABB494B47491A78554B03C9EF
:10165000FFF776F95349544802F064FBFFF70DBBDE
:10166000524802F05FFBFFF708BB514802F05AFBFB
:10167000FFF703BB3C4D3D4F4E4802F053FB2A1D84
:1016800000234D493B7030460DF052F895E80300B9
:101690003A78444BFFF754F94249434802F042FB81
:1016A000FFF7EBBA454802F03DFB304B44491F7051
:1016B000304642460DF03CF8B8F80010414802F0C0
:1016C00031FBFFF7DABA42463F49284D30460DF06C
:1016D0002FF8B8F800103D482F7002F023FBB8F83F
:1016E0000020B32A05D81E23B2FBF3F3C3F106038F
:1016F0009FB2C7F106036FF01D0606FB03233448B3
:101700003449052293FBF2F39AB21F2A02800F801C
:101710001CD803EB4713DBB21A042F49124E0B708F
:1017200002EB036202EB032213442C487360194658
:1017300002F0F8FA96E803002A781A4BFFF700F94E
:101740001849194802F0EEFAFFF797BA2448064EF6
:1017500002F0E8FAEEE700BF10030020C8F800002E
:1017600044F9000048F90000340300202C03002055
:10177000A003002004FA000014FA000018FA000088
:101780009CF90000A8F40000ACF9000080F900000A
:10179000ACF40000C0F900003CFA000024FB00009B
:1017A00054FE00003C03002044F50000D4F9000082
:1017B0005CF90000E8FA000010FB0000ACFA000041
:1017C000C0FA0000D0FA00004CFA00005CFA0000F9
:1017D000300300202E030020A203002074FA000032
:1017E00084FA0000F0B54FF080434FF0FF32D3F899
:1017F0000044C3F8002489B00AF088FF002800F0F4
:10180000B380DFF8C801016841F470010160BFF3E3
:101810004F8FBFF36F8F03F06FFD02F0D9FF03F01E
:10182000BDFC03F0F7F803F011FC002003F0A0FE6C
:1018300003F0C2F84E484F4F4F4D504E03F09AF808
:1018400003F0EAFD4E4802F06DFA4E494E4A4F4B06
:101850004F4814F4002F08BF0A4614F4802F08BF25
:101860000B4614F4003F08BF0F4614F4803F08BF36
:10187000084614F0080F0097464F019008BF0F4626
:1018800014F0040F4448029708BF084614F0020FF2
:10189000424F039008BF0F4614F0010F40480497D1
:1018A00008BF0846059021463E4802F03BFA3E48F4
:1018B00002F038FA00213D4803F0A6FB03F03AF9A4
:1018C00003F0DCF903F006F8394A3A4B10600122C4
:1018D0001A7007F007FF00F07BF8044600F07EF86E
:1018E00024BA03BA082206A92846069307940CF0E6
:1018F000F7FEF46A4AF6CD310220A047736B082246
:1019000006A90B209847BDF81E1049BA89B20320DA
:10191000A0470822294628480CF0E2FE08F036F8D5
:101920002648002103F070FB6A782978244802F0E9
:10193000F9F92448002103F067FB234803F0A4F8D9
:1019400003F08EF803F09CFB044603F091F814F0CA
:10195000FF0FF7D130BF03F093FB044603F088F884
:1019600014F0FF0FEED1F5E70AF09CFE49E700BF47
:10197000C1530000E0FC00009C24002054FE000045
:1019800014FD000084FC0000D0FC0000D8FC000026
:10199000E8FC0000F0FC0000F8FC000000FD000086
:1019A00008FD00002CFD000054FD0000BC000020DC
:1019B000741A0020681A0020B41A0020EC000020DD
:1019C00074FD0000DC000020B4FC000088ED00E0A5
:1019D000014B1B681868704780000020014B1B6892
:1019E000586870478000002010B582B06B4642F600
:1019F0006704032201A90220ADF8044008F07CFC32
:101A00009DF802209DF801309DF8000003EB0223B1
:101A100000EB0320DB0446BF6FEA00306FEA1030B2
:101A2000C0F3140002B010BD10B582B003461724F5
:101A3000052201A901208DF8044008F05DFC02B0E8
:101A400010BD00BF10B582B003461524052201A9C0
:101A500001208DF8044008F04FFC02B010BD00BF1B
:101A600000B5C0B283B051B960F07F008DF80400BA
:101A700001A9012008F0B8FC03B05DF804FB60F098
:101A80003F007F298DF80400C8B208D88DF8050002
:101A900001A9022008F0A8FC03B05DF804FB60F087
:101AA0007F00C9098DF805008DF80610032001A9F3
:101AB00008F09AFC03B05DF804FB00BF10B51446B3
:101AC0000244B2F5806F07DC0B46821E21460920D6
:101AD000FFF7C6FF002010BD4FF0FF3010BD00BF64
:101AE00010B582B0044601AB022241F604012E205B
:101AF000ADF80440FFF7B4FF02B010BD10B582B0DE
:101B0000044601AB022200211820ADF80440FFF783
:101B1000A7FF02B010BD00BF10B582B003788DF8EA
:101B20000430044601AB01220B212A20FFF798FF65
:101B300063680193042201AB00211E20FFF790FF90
:101B400002B010BD10B5094B1B68DB6843EAC23216
:101B500082B0104340EA815401AB042200210820E6
:101B60000194FFF77DFF02B010BD00BF8000002090
:101B700000B5C0B283B041B98DF8040001A90120BD
:101B800008F0BAFB03B05DF804FB40F040007F2989
:101B90008DF80400C8B208D88DF8050001A902200C
:101BA00008F0AAFB03B05DF804FB60F07F00C909F0
:101BB0008DF805008DF80610032001A908F09CFBA4
:101BC00003B05DF804FB00BF10B40C460346114699
:101BD000112022465DF8044BFFF7CABF30B583B031
:101BE000002101AD084604222B46FFF7C1FF0DF18D
:101BF000070200201478AA4204EB002002F1FF3211
:101C0000F8D103B030BD00BF30B583B001AD0422C0
:101C100017202B460021FFF7ABFF0DF10702002034
:101C20001478AA4204EB002002F1FF32F8D103B08D
:101C300030BD00BF30B583B001AD042215202B4666
:101C40000021FFF795FF0DF1070200201478AA424A
:101C500004EB002002F1FF32F8D103B030BD00BF29
:101C600070B582B001AC064623460222052115203C
:101C7000FFF77EFF9DF805209DF8043003EB02235B
:101C8000F3810222234600212E20FFF771FF9DF8E9
:101C900005109DF80420334602EB012223F8042BA3
:101CA00021460822122501208DF8045008F024FB5B
:101CB0002346022207211520FFF75AFF9DF8052031
:101CC0009DF8043003EB0223738000212346042295
:101CD0001020FFF74DFF0DF1070300211D789C42F6
:101CE00005EB012103F1FF33F8D1090DB18102B0F9
:101CF00070BD00BF10B582B0144680B289B20DF13C
:101D0000070301228DF80740FFF7AAFE02B010BDBD
:101D100030B583B0042201AD2B46044600211046A5
:101D2000FFF726FF0DF1070200231078954200EB24
:101D3000032302F1FF32F8D194B10B4A04F4FF748B
:101D40001A40144344F00104084B196804220C6142
:101D50002B46104600210194FFF782FE03B030BDF0
:101D6000034C1C40F0E700BF01FE47F0800000205C
:101D7000FEFF47F010B5022282B00446114601ABC7
:101D80000320ADF80440FFF76BFE02B010BD00BFAA
:101D900010B582B0044601AB022200210320ADF849
:101DA0000440FFF75DFE02B010BD00BF10B582B069
:101DB00003468124082201A901208DF8044008F07F
:101DC00013FB02B010BD00BF00B583B0034608226C
:101DD000012001A98DF8040008F08EFA03B05DF827
:101DE00004FB00BF30B583B001AD04462B46022290
:101DF00004212D20ADF80440FFF732FE03242B46CA
:101E0000012206212D208DF80440FFF729FE002431
:101E10002B46012206212D208DF80440FFF720FEDD
:101E200004222D202B460A21FFF7A2FE20460DF1A9
:101E300007021378AA4203EB002002F1FF32F8D127
:101E400003B030BD10B582B00DF1070300240122AC
:101E500002212C208DF80740FFF702FE02210DF130
:101E6000070301222C208DF80710FFF7F9FD02B0BF
:101E700010BD00BF30B583B001AB04466D25012213
:101E800040F606012E208DF80450FFF7E9FD01AB66
:101E90005CB140F20764022241F606012E20ADF843
:101EA0000440FFF7DDFD03B030BD41F20764F2E707
:101EB0002DE9F0430678B34B4279B34D477833F8B8
:101EC0001280C1792B68042E18BFA6F1070907F10B
:101ED000FF3718BFB9FA89F91A6983B00446FFB20F
:101EE00014BF4FEA59194FF00109002940F02B8126
:101EF00042F480021A614FEAD8081A69217A99726D
:101F000022F440321A6194F808C04FEA0C4C0CF4E9
:101F1000403C4CEA020C0422C3F810C010460DEB02
:101F200002030021CDF804C0FFF79AFD01AB0222A5
:101F300042F604012E20ADF80480FFF791FD3846EB
:101F4000FFF798FF914B924A13F8068052F8282029
:101F5000019201AB042207212B20FFF781FD8D4A5E
:101F600012F808208DF8042001AB01220B212B2050
:101F7000FFF776FD884A12F809208DF8042001AB9E
:101F800001220B212820FFF76BFD844A52F82820FC
:101F9000019201AB04220C212820FFF761FDE279B8
:101FA000A3797F4903EB4203022231F81330ADF8E5
:101FB0000430114601AB2720FFF752FD794A32F871
:101FC0001720ADF8042001AB022204212720FFF7DF
:101FD00047FDE379002B00F0CA80A378042B00F0C2
:101FE00098804FF0200C01AB022206212720ADF88B
:101FF00004C0FFF735FD4FF0280C01AB012226216C
:1020000027208DF804C0FFF72BFDE278664902EB2C
:10201000870201AB51F822200192082104222720D7
:10202000FFF71EFD6389002B00F08680DAB24FEACD
:10203000132CDFF87C818DF8042001AB02222021D3
:1020400027208DF805C008EB4707FFF709FDD8F8F2
:1020500000300193042201AB0C212320FFF700FD87
:10206000BA88ADF80420042101AB02222320FFF737
:10207000F7FCA17900296AD10A46677894F805C06F
:10208000207906F00F03BF0407F4402743EACC632E
:1020900080053B43360100F0F860F6B21843304348
:1020A0000843002610434FEA104C070E314601AB9F
:1020B0008DF8040004221F208DF806C08DF80770EB
:1020C0008DF80560FFF7CCFC6078A278E379296889
:1020D00002435B0343EA0243CB601D0A1C0C3146FA
:1020E00001AB042208208DF806408DF804608DF8BD
:1020F00007608DF805504224FFF7B2FC314601AB72
:1021000001220D208DF80440FFF7AAFC03B0BDE8C2
:10211000F0834FF0100801AB022206212720ADF812
:102120000480FFF79DFC01AB0122262127208DF8BA
:102130000480FFF795FC68E741F2410363814FF0AB
:10214000100C412275E722F480021A61D5E6174986
:10215000E2798A5C8DF804200021012201AB212064
:10216000FFF77EFC4FF400314FF4401285E74FF04B
:10217000640C01AB022206212720ADF804C0FFF752
:102180006FFC42E7E8FD00008000002098FD0000A1
:10219000C8FD0000E0FD00001CFE00002CFE000059
:1021A00020FE0000C0FD0000A0FD0000C4FD0000F6
:1021B00090FD00002DE9F04383B00422154F0DF18E
:1021C000040906464B4610460021D7F8008000243B
:1021D000FFF7CEFC0DF107021578914505EB0424BD
:1021E00002F1FF32F8D13B68C8F810401C6966B1B3
:1021F00024F480241C6104224B46104600210194E3
:10220000FFF72EFC03B0BDE8F08344F480241C618A
:10221000F1E700BF8000002070B582B001AE04225B
:102220000546334600211A20FFF7A2FC00240DF1D9
:1022300007021378964203EB042402F1FF32F8D12F
:10224000240DC5F3130524052C4333460422002135
:102250001A200194FFF704FC02B070BD10B4044CC6
:102260002468C4E90A01C4E90C235DF8044B7047F3
:102270008000002070B510F0010582B042D001ACA2
:1022800023460021064604222620FFF771FC0DF1AB
:102290000703002118789C4200EB012103F1FF3372
:1022A000F8D121F4705141F4A055234604220021B5
:1022B00026200195FFF7D4FB234600210422362077
:1022C000FFF756FC0DF10703002118789C4200EB44
:1022D000012103F1FF33F8D141F404052346042220
:1022E000002136200195FFF7BBFBB30726D4234618
:1022F00004224FF48874282136200194FFF7B0FBA4
:1023000002B070BD01AC2346294604222620FFF707
:102310002FFC29460DF1070318789C4200EB0121A0
:1023200003F1FF33F8D121F4705523460422002134
:1023300026200195FFF794FB02B070BD044B01937A
:102340000422234628213620FFF78AFBCFE700BF6F
:1023500010010F0030B583B0044636256B4601A945
:10236000022201208DF8045007F0C6FF0E2C12D86F
:10237000DFE804F02C0835111111113E4D111156F2
:102380005D6427009DF80130002223F001038DF8E1
:1023900001308DF8002001226B4601A91046B624B9
:1023A0008DF8044008F020F84FF4FB7401A90DF1FA
:1023B000010301220220ADF8044008F015F803B033
:1023C00030BD40F20133ADF80030E4E79DF8003055
:1023D00023F0030343F001038DF80030DBE79DF8A1
:1023E000003023F0030343F002038DF80030D2E7FE
:1023F0009DF800309DF8012023F04C0343F0480382
:1024000062F07F028DF800308DF80120C3E7BDF83F
:10241000003023F4004323F04C03ADF80030BAE75A
:102420009DF8013043F002038DF80130B3E79DF8C9
:10243000013023F002038DF80130ACE79DF8003045
:1024400023F0300343F020038DF80030A3E700BFF2
:1024500010B50E2082B0FFF77DFF4FF4004401ABB2
:10246000022206212D20ADF80440FFF7F9FA0120E1
:1024700002F0FAF90120FFF76DFF02B010BD00BFB6
:1024800010B5002082B0FFF765FF002401AB0222E7
:1024900004213620ADF80440FFF7E2FA02B010BD87
:1024A00010B582B0044601AB042201210A20019438
:1024B000FFF7D6FA02B010BD30B510F0020383B0BA
:1024C00004D01E4B1B6801225A75802310F00104B2
:1024D0001AD043F00604012201AB00210D208DF833
:1024E0000440FFF7BDFA0F2001AB02220321FFF7E2
:1024F0003FFB9DF805409DF8040000EB042010F41C
:1025000081600ED103B030BD43F00205012201AB62
:1025100021460D208DF80450FFF7A2FA204603B0A3
:1025200030BD0D2001AB4024012200218DF8044074
:10253000FFF796FA4FF0FF30E4E700BF800000207D
:1025400000B583B00DF10703012203210F20FFF72F
:102550000FFB9DF8073083EA43031B0602D403B048
:102560005DF804FB01220DF1070303210D208DF816
:102570000720FFF775FA03B05DF804FBF0B583B0F0
:1025800001AD04222B4600210E20FFF7F1FA0024B2
:102590000DF107021378954203EB042402F1FF3298
:1025A000F8D107F091FE0026074631462B4604225B
:1025B0000E200196FFF754FA4FF0400C31462B469F
:1025C00001220D208DF804C0FFF74AFA0C4B01934D
:1025D00031462B4604220F20FFF742FAFFF7B0FFE7
:1025E0002B46314604220E200194FFF739FA384673
:1025F00007F078FE034B1B685E7503B0F0BD00BFAB
:10260000F8FF27248000002030B5430783B004463C
:1026100027D514F0010517D001AB4FF44075022205
:1026200000210D20ADF80450FFF71AFA01AB01228A
:1026300003210F20FFF79CFA9DF8045015F00805C0
:1026400012D1284603B030BD4FF4807401AB022292
:1026500029460D20ADF80440FFF702FA284603B0E2
:1026600030BDFFF76DFFD4E7FFF788FF14F00201DC
:1026700002D04FF0FF35E4E74FF4807401AB022243
:102680000D20ADF804404FF0FF35FFF7E9F9D8E72A
:1026900030B583B0044601AB012203210420FFF7CB
:1026A00067FA9DF80450CCB101AB022200210C2046
:1026B000ADF80440FFF7D4F90C4B19680B6945F0ED
:1026C000100543F080520A6101AB0122032104206E
:1026D0008DF80450FFF7C4F903B030BD034B1968FF
:1026E0000B6925F0100523F08052ECE780000020F4
:1026F0002DE9F04383B00E46804607F0E5FD022E3B
:1027000007460DD101AB042200210E20CDF8048034
:10271000FFF7A6F9384607F0E5FD03B0BDE8F08302
:102720000DF1040904224B4600210E20FFF720FA88
:1027300000250DF107021378914503EB052502F101
:10274000FF32F8D1012E0ED025EA08054B460422AF
:1027500000210E200195FFF783F9384607F0C2FDEE
:1027600003B0BDE8F08348EA0505EFE710B582B095
:102770000DF10703E0240122032136208DF80740E4
:10278000FFF76EF9F0240DF1070301220321362033
:102790008DF80740FFF764F902B010BDF0B583B0C3
:1027A0005E4E01AD2B46042200210F203768002425
:1027B000FFF7DEF90DF1070319789D4201EB0424C0
:1027C00003F1FF33F8D1FC61670440D52B460422A6
:1027D00000210F204FF4DE470197FFF741F93368DE
:1027E000002183F8241002222B461020FFF7C0F9A5
:1027F00033689DF805009DF80420997A02EB0022C9
:1028000092B2002967D0C2F309011004198405D5DA
:1028100093F8242042F0010283F824202946223331
:102820001127022201208DF8047007F065FD2107B1
:10283000306804D590F8221011F0200757D0C36AF1
:1028400013B11C3098473068037D002B46D1220617
:1028500011D52B460F20F827042200210197FFF7FE
:10286000FFF82307306802D5437D002B50D1836ADF
:102870000BB11C30984714F4081F14D00F2000210E
:102880002B4604224FF400370197FFF7E9F833682D
:1028900000225A75FFF772FEFFF768FF3068036B7E
:1028A0000BB11C3098471E4F3C4212D00F20002124
:1028B0002B4604220197FFF7D3F8336800225A759C
:1028C000FFF75CFEFFF752FF3068436B0BB11C3023
:1028D000984703B0F0BD02F07F0196E701222B4636
:1028E00003210D208DF80420FFF7BAF8AFE74FF071
:1028F000080C2B460F2004223946CDF804C0FFF700
:10290000AFF83068C369477523F00803C36196E7E1
:10291000FFF734FEFFF72AFF3068A8E780000020A9
:102920000090052430B5002483B0FFF7A9FD2146AF
:1029300001AB02222C20ADF80440FFF791F801AB67
:10294000012206212C208DF80440FFF789F8FFF7BB
:1029500079FA01AB0122032136208DF80440FFF7FC
:102960007FF8012001F080FFF02501AB0122032157
:1029700036208DF80450FFF773F8024B1B685C7526
:1029800003B030BD800000202DE9F0439C4F3B6830
:102990000024C3E90A44C3E90C445C6183B00646E1
:1029A000FFF71CF9974B984240F0268116F0020879
:1029B00000F0958016F0F80900F0FF8001AD214687
:1029C0002B460424012224208DF80440FFF748F808
:1029D0000DF107042B46302104222820FFF7C8F808
:1029E0002346002118789D4200EB012103F1FF33BB
:1029F000F8D1B1F1883F04D03A68D38A43F48053C8
:102A0000D38206F00A030A2B00F0EC80D7F800907E
:102A1000002389F80B3016F0100340F08F80C9F8BE
:102A2000003016F0200340F09480C9F8043016F00E
:102A3000400340F097803A68137216F0800340F02C
:102A40009A803A685372B8F1000F40D1F10740F113
:102A50009D80FFF7FDFC3A68D38A43F40063D3827C
:102A60000120FFF777FC4FF000082B4601220A21D6
:102A70002C208DF80480FEF7F3FF04224146104617
:102A80002B463E68FFF774F8414622461078AA426A
:102A900000EB012102F1FF32F8D13F6831617B8AFE
:102AA00003F00303BB72042200212B460820FFF72A
:102AB0005FF8224600211078954200EB012102F1D7
:102AC000FF32F8D1F960002003B0BDE8F08372074F
:102AD000C6D43A68D38A43F40063D382C0E7FFF7D1
:102AE00021FF01AD4046FFF735FC04242B460122AF
:102AF000414624208DF80440FEF7B2FF2046FFF740
:102B000071F910F0FF0F5ED11E20FFF76BF93B68E3
:102B1000C0F30722DA72C30633D170242B46012298
:102B20000E212B208DF80440FEF79AFF16F01003BB
:102B3000D7F800900DF107043FF471AF0620FFF7BE
:102B400051F916F02003C9F80000D7F800903FF4BF
:102B50006CAF0720FFF746F916F04003C9F80400F0
:102B60003FF469AF0820FFF73DF93B68187216F093
:102B700080033FF466AF0920FFF734F93B685872D1
:102B800061E700F01F0040F06004C7E72B46022217
:102B900005213620FEF7ECFF9DF805309DF8046016
:102BA00006EB032626F400762B460222052136206A
:102BB000ADF80460FEF754FF52E74846FFF7CAFB42
:102BC00001AD4946FCE62B460122022412212D20AC
:102BD0008DF80440FEF744FF3A68D38A43F48053EB
:102BE000D38291E71E20FFF7FDF8D7F80090C0F3DD
:102BF000072089F80B000EE74FF0FF3064E700BFB5
:102C0000800000203001CADE014B1878704700BFF9
:102C1000E2030020014B1878704700BFE00300205A
:102C20000120704708B50020FFF732FD0020FFF7B4
:102C3000EBFC002008BD00BF08B500F02BFF002012
:102C4000FFF726FDBDE808400020FFF7DDBC00BF10
:102C500010B507F039FB044600F01CFFFFF78EFCAF
:102C600060B207F03FFB002010BD00BF10B507F0B9
:102C700017FC00F0A3FF00F0D9FF0120FFF7FAFADC
:102C80000D4B00243E201C70FFF742F80B4807F064
:102C90002DFB0B4B0B4A0C490C48FFF7DFFA0C4895
:102CA0000121FFF725FD00F0CBFA0A48214602F08A
:102CB000ABF9204610BD00BFDC0300209D270000BB
:102CC000392C0000D92C0000F92E0000752F0000CF
:102CD00080D023248400002008B500F0DBFE002013
:102CE000FFF7D6FC0020FFF78FFCBDE8084002206C
:102CF00002F00CBB70B5038804467BB140F2E712CA
:102D0000934210D1822912D0012070BD0026304696
:102D10002E70FFF7BDFC3046FFF776FC40F2E7135C
:102D20002380012070BD00230380032070BD144D5B
:102D30002E78F6B1134E3388802BE7D806F0A6FD27
:102D400006F05EFD2B78318863B9084606F052FD27
:102D50000020FFF79DFC0020FFF756FC0A4B1B6983
:102D60009847DBE70022FEF72FFF002331882B7006
:102D7000EBE73046FFF78CFC3046FFF745FCCDE72C
:102D8000E0030020DE030020800101000B2801D0B9
:102D900001207047082A13D191B100B583B001F129
:102DA00008030DF1FF3213F8010D02F8010F8B42F9
:102DB000F9D16846FEF7FAFF002003B05DF804FB86
:102DC000022070470B2801D001207047082A15D136
:102DD00000B585B0019199B102A8FEF7F5FF019900
:102DE0000DF10F024B1E073112F8010903F8010F14
:102DF0008B42F9D1002005B05DF804FB022070473A
:102E00000220F8E7032810B505D004280DD00228C9
:102E100006D0012010BD88B2FEF7BAFF002010BD19
:102E200088B2FEF7A7FF002010BD11F0010404D006
:102E30003E20FEF76DFF002010BD2046FEF768FF24
:102E4000014B1C70204610BDDC03002008B500F0CB
:102E500019FE20B9034B187880F0010008BD00204E
:102E600008BD00BFE203002070B507F02DFA04464C
:102E700000F008FE64B2E0B90546114EFFF77EFB94
:102E80002846FFF7C9F902203570FFF715FB054604
:102E9000204607F027FA15B10125284670BD01F03C
:102EA000E7FD3378002BF8D13378002BFCD028468F
:102EB00070BD2046012507F015FA284670BD00BFF9
:102EC000E1030020F8B506460D4600F0DBFD08B131
:102ED0000120F8BDAF1C0446FFB2314622463846F9
:102EE000FEF7ECFD384622462146FEF72BFE28462B
:102EF000BDE8F840FFF7B8BF38B5037ADA071AD44F
:102F0000044600F0C7FD0E4AA3880E4D11780E4806
:102F1000023B01222B80027029B123681B0702D5D6
:102F20000A4B1A7038BD094B094800221A70BDE8D7
:102F3000384002F025B9BDE8384000F071BA00BF52
:102F4000DC030020DE030020E0030020E203002079
:102F50008400002038B5064D2B780BB9184638BDD3
:102F600000220C46FEF730FE002320462B7038BDB1
:102F7000E0030020054B06491A780120087002B9C9
:102F80007047002203481A7002F0FAB8E2030020EA
:102F9000E10300208400002070B506460D4600F0D5
:102FA00071FD08B1012070BD02350446EDB2314615
:102FB00022462846FEF782FD284622462146FEF795
:102FC000C1FD204670BD00BF00F0A2B900000000A6
:102FD0002DE9F84F2DED048B038840F20332934224
:102FE00004460CD040F22932934222D0002B38D034
:102FF000002303800320BDEC048BBDE8F88F8229F9
:103000002AD17B4D2B78DA1F012A32D9053B012BBF
:1030100037D9784E3368D3B1774B1B687BB9774B80
:103020007748996901F0FAFE40F2293323800120A4
:10303000E1E7734801F010FF70B16D4D6D4E714BBB
:103040006D4A1978306802F06DF800233360002370
:103050002B7040F203332380BDEC048B0120BDE8CC
:10306000F88F684D2B78002BF3D101F0C5FF287045
:10307000EFE7604B604A1B6800211160002BE6D02F
:10308000CDE7614B1B78002B4DD1604A6048614B06
:1030900000686149126809681B68604E121A07EEE1
:1030A000902A5B1AB8EEE77A96ED006A07EE903A3E
:1030B000F7EE006A76EEC66AF8EEE77AE7EE667A31
:1030C00017EE900A0AF0CEFD554B00220AF022FEC0
:1030D00043A3D3E900230AF01DFE43A3D3E9002351
:1030E0000AF018FE444F434E89468046C7E90489DA
:1030F0000BF0F2F84B4B00EE100A0221187807F0A3
:1031000043FA404653EC102B49460AF04BFC336817
:103110000122C7E902013A60002B98D02B78062BD8
:103120003FF47DAF8BE7404A404B17681868381A68
:103130000AF076FD3E4A3F4BD2F80080824618687E
:10314000A0EB08008B460AF06BFD0B463A4902469D
:103150000868C01B16461F460AF062FD0B46374939
:1031600002460868A8EB000043EC182B0AF058FD53
:103170003246804689463B46504659460AF0CAFDCB
:1031800049EC198B804653EC192B894651EC180BEE
:103190000AF0C0FD02460B46404649460AF002FCD2
:1031A0003246804689463B46504659460AF0FCFB6B
:1031B00053EC182B0AF0F8FB53EC192B0AF0F4FB34
:1031C00002460B46404649460AF0CEFE0BF0ECF8AC
:1031D0000AF072FD02A3D3E900230AF09BFD7CE70D
:1031E000FA48CE3B1835B13D0000001319DDB1415E
:1031F0006C040020241A0020300400200804002061
:10320000E4030020201A002050040020141A00209B
:103210000C1A00202C1A0020001A0020041A00208A
:103220000000E03FF4030020181A0020101A0020CC
:10323000301A00201C1A0020281A0020081A00202A
:1032400070B500F0D9FC04462749284800F0DCFCA2
:10325000E379274A2478146053B3022B09D1254E11
:10326000254D0FCE0FC50FCE0FC596E8030085E89C
:103270000300013C062C0BD8DFE804F0231C041CDF
:10328000040A040012A1D1E900011C4BC3E90001AA
:103290001B4B1C4848F64105AB221D80CD24002164
:1032A0001A71DC7001F0B0FE174B00221A7070BD6D
:1032B000164ED5E708A1D1E90001104BC3E9000182
:1032C000E6E707A1D1E900010C4BC3E90001DFE704
:1032D000C8D281727D2C2DBF90066990066930BFDF
:1032E000132CC1122CC132BF6E04002052040020E6
:1032F000F4030020C8FE000008040020F8030020AA
:1033000070040020940000206C040020A0FE000047
:1033100001292DE9F84F05D8364B1B7813B1364EED
:1033200033681BB100242046BDE8F88FDFF8E09039
:103330000C46054606F0C8FF99F8008047B2B8F180
:10334000000F50D1FFF71AF92C4A696828682C4DF4
:10335000DFF8C0C0DFF8C0A0DFF8C0B0134603C379
:10336000002C507827491278AA710CBFE022D02295
:103370009CF800306A720A7868712A724878224A8A
:10338000E871002100200133DBB2C2E90201C2E989
:103390000401DAF804008CF80030AB70C2F8008049
:1033A0008BF80040FEF738FFBAF80800FFF770F915
:1033B000424629460C20FEF781FB0C2041460122A3
:1033C000FEF7C0FB0220FFF777F860B99BF80020FA
:1033D0000E4B002A1B6833600CBF0122022289F8C1
:1033E0000020012400E00024384606F07BFF204640
:1033F000BDE8F88F201A0020241A0020480400207D
:10340000700400209C24002030040020D0060020FE
:103410006C04002000040020080400205004002058
:103420002DE9F04FBB4C8388227885B09AB90C2BDC
:103430006BD007232370FFF7A1F8FFF797F900205F
:10344000FFF726F90020FFF7DFF8B34801F098FEF8
:1034500005B0BDE8F08F012A00F07681022A00F065
:10346000DB81032A00F0B680042AE2D1182BE0D1D8
:10347000AA4D002216212846FEF7A6FBA84B697923
:103480005A789142D5D11B78AA799A42D1D1A54BCD
:10349000E9795A789142CCD11B782A7A9A42C8D1DC
:1034A0006B7AD32BC5D1284600221621FEF78CFB60
:1034B000E87AA97AEF7BAA7BEE7CAB7C41EA00211B
:1034C000287B41EA0041687B42EA07222F7C41EADF
:1034D000006143EA062394482E7D016042EA0742D8
:1034E0006F7C924843EA06436E7D914D42EA076243
:1034F000026043EA0663052100202B602170FFF77C
:10350000C7F80020FFF780F89FE7844D844E2846D7
:103510000A21FEF759FB6A7973789A4289D1AA7910
:1035200033789A4285D16B7AE02B00F02182D02B40
:103530007FF47FAF0DF108084046FEF783FA03A938
:10354000002200230F784FEA032C4CEA126C8845C6
:1035500047EA0222634601F1FF31F3D1754F724809
:1035600039680260090452184CF10003100A40EA5D
:103570000360FEF795FFF868FEF74EFEB88AFFF786
:1035800087F86D49674BAA7896F801C037788A703A
:10359000D120EE7948722D7A81F807C000220C20E4
:1035A0005E701D700F724E718D71FEF787FA0122E9
:1035B00000210C20FEF7C6FA362020220021FEF75B
:1035C00099FB0320FEF778FF00287FF432AF032336
:1035D00023703DE7182B7FF42CAF504D504E002246
:1035E00028461621FEF7F0FA6A7973789A427FF43A
:1035F00020AFAA7933789A427FF41BAF494BE9791F
:103600005A7891427FF415AF1B782A7A9A427FF458
:1036100010AF6B7AD22B7FF40CAF0DF10808404647
:103620000DF10C09FEF700FA4B46002218784345CD
:1036300040EA022203F1FF33F8D13C4B40461A60C6
:10364000FEF700FA4B464FF0000C1978984541EA16
:103650000C2C03F1FF33F8D1EB7AAA7AE87BA97B33
:10366000EF7CDFF8CC8042EA03222B7BC8F800C055
:1036700041EA002142EA0342687BAB7C42EA0062F5
:1036800043EA0723287C2D4F3A6041EA0042287D17
:10369000697C294F43EA0043294842EA0162697D77
:1036A0000260284A43EA01631360AB78BB70D323FE
:1036B0003178EA797B727378FB7139722B7A1A4907
:1036C0007A7107F10A000422BB710BF009F817495F
:1036D000042207F10E000BF003F84146042207F123
:1036E00012000AF0FDFF394600221820FEF7E6F925
:1036F000012200211820FEF725FA0020FEF78CFD9C
:103700000020FEF7C5FF0220FEF7D6FE0623237039
:103710009BE600BF6C0400209400002054040020AD
:103720009C24002048040020081A0020301A0020A1
:103730001C1A00200804002070040020101A002029
:10374000181A0020281A0020142B7FF472AEBE4DE8
:10375000002212212846FEF737FABC4B69795A78C5
:1037600091427FF466AE1B78AA799A427FF461AEEB
:10377000B74BE9795A7891427FF45BAE1B782A7A8D
:103780009A427FF456AE6B7AE12B7FF452AEFEF78D
:103790003BFAB04BDFF8E8821860FEF74BFAAE4B0D
:1037A0001860FEF721F9AD4AAD4B0746D2E9080192
:1037B000D3E900230AF0AEFAA1A3D3E900230AF06B
:1037C000D3FB0246384616460F460AF039FA02463F
:1037D0000B46304639460AF09DFA0AF07DFDEE7A36
:1037E000AA7AE97BAB7B95F80CC02F7CC8F8000067
:1037F00042EA0622687B9B4E43EA012342EA0C42DE
:10380000697C994D42EA006243EA074343EA016357
:1038100000200521326070E60C2B7FF40AAE8A4D41
:1038200000220A212846FEF7CFF9884B69795A7899
:1038300091427FF4FEAD1B78AA799A427FF4F9ADEC
:10384000834BE9795A7891427FF4F3AD1B782A7A59
:103850009A427FF4EEAD6B7AD12B7FF4EAAD0DF195
:10386000080840460DF10C09FEF7DEF800254B462E
:103870001978434541EA052503F1FF33F8D1404665
:10388000FEF7E0F800230022CDE900234B46DDE9F6
:1038900000671A78390241EA166142EA0622984521
:1038A0000092019103F1FF33F1D1DFF8B0B1DFF8FD
:1038B000CCA1DBF810306D4FDDE900891B0418EB5B
:1038C000030849F100094FEA1820D22340EA0960B1
:1038D0008AF80930FEF7E4FD0020FEF79DFCBBF8F6
:1038E0001600FEF7D5FE624B62491A88624BAAF8B1
:1038F0000A50DDE900BC28F4FF7828F0010818EB35
:1039000002082A0CC1F80080280E8AF80C205946BB
:103910005A46AAF81280090C120E8AF80D004FEAD6
:1039200018404FEA18688AF810108AF8112051469A
:1039300000228AF81400AAF80EB018208AF8158020
:10394000C3F800B03D60FEF7B9F80122002118204D
:10395000FEF7F8F8362020220021FEF7CBF90320ED
:10396000FEF7AAFD00287FF464AD042323706FE501
:1039700002AF3846FEF766F84FF000084FF0000936
:1039800003AB1A784FEA092141EA1861BB4242EAC7
:103990000828894603F1FF33F3D1304B1B681B0421
:1039A00018EB030A41F1000B4FEA1A2040EA0B60C2
:1039B000FEF776FD2E4B31491A8896F801C037780C
:1039C000A1F80A802AF4FF7A2AF0010A1AEB020A07
:1039D0004FEA1A434FEA1A624FEA186E0B744A74A0
:1039E0004FEA1843AA7881F80DE0E1200B738A7042
:1039F0002B7A4872EE79A1F80EA00022142081F8EB
:103A000007C08B710F724E71FEF758F8012200212A
:103A10001420FEF797F80020FEF7FEFB0020FEF7CB
:103A200037FE362020220021FEF764F90320FEF73E
:103A300043FD00287FF4FDAC0AE500BFAFF3008032
:103A40000000000080842E41540400209C240020AB
:103A500048040020001A00202C1A0020080400202E
:103A6000F80300200C1A0020141A0020101A00205D
:103A70006E040020281A0020181A0020700400206C
:103A8000041A0020024B1878003818BF0120704734
:103A90006C040020054A1378013B032B00D97047C2
:103AA00008230348137001F06BBB00BF6C040020B7
:103AB0009400002070B5044606F006FC084E05464A
:103AC000FEF75CFD20686168A268334607C3304694
:103AD000FEF7EEF968B206F005FC012070BD00BFEC
:103AE0008804002038B50C46054606F0EDFB034679
:103AF00095E80300084A82E8030010461D46FEF7D9
:103B00000BF8064B20461C70FEF754FB68B2BDE86C
:103B1000384006F0E7BB00BF9C040020960400205C
:103B2000F8B50E46044606F0CFFB084F084B3E8022
:103B3000054620461C80FDF7D3FF3888FDF7DEFFE1
:103B400068B2BDE8F84006F0CDBB00BF9804002085
:103B50009404002021B1C379022B01D000207047CA
:103B600030B40478631EDDB2062D1DD8062C1BD0A0
:103B7000407801281BD0022816D10120072C14BF41
:103B80000C4C052301EB410103EB410118BFE45C40
:103B9000094B00EB410108BF932453F82130147006
:103BA000012030BC53607047002030BC70470020BB
:103BB000E4E700BF0C0001001400010010B50D4B3C
:103BC00093E8070086B003AC84E807002046FFF7BF
:103BD00071FF01AA20460121FFF7BCFF01A80121C6
:103BE000FFF780FF44F247010846FFF799FF06B050
:103BF00010BD00BF0000010000487047880400208D
:103C0000004870479C040020034A044B12881B881C
:103C100002800B80704700BF9404002098040020AD
:103C2000014B1878704700BF9604002038B5234C2C
:103C30002348244D00F076F82178234800F072F8EC
:103C40006178224800F06EF8A178214800F06AF807
:103C5000E178204800F066F821791F4800F062F80A
:103C600061791E4800F05EF8A1791D4800F05AF80D
:103C7000E1791C4800F056F8217A1B4800F052F810
:103C800061891A4800F04EF8194B1A48197800F06B
:103C900049F82978184800F045F86968174800F095
:103CA00041F8174B1748198800F03CF8164B174895
:103CB0001988BDE8384000F035B800BF88040020FE
:103CC000FCF400009C040020F0FE000000FF000057
:103CD0000CFF000018FF000028FF00003CFF000060
:103CE00050FF000064FF000078FF000088FF000024
:103CF000960400209CFF0000B4FF0000C4FF0000F9
:103D000094040020D8FF000098040020ECFF00007D
:103D10000AB90020704708B50846114606F0F2FCC3
:103D2000002008BD0FB400B583B004AA054852F8BE
:103D3000041B019200F050F803B05DF804EB04B0EE
:103D4000704700BFA400002038B50446006815463F
:103D50000AF0C6FC23682B442360002038BD00BF56
:103D60000EB410B587B009AA094C52F8041B019093
:103D700001AB04A8CDE90443039200F02DF8019BA8
:103D800000221A7007B0BDE8104003B0704700BFB2
:103D9000493D0000102A2DE9F041144606460D4623
:103DA0000DD90C4F01E0102C0CD933682868102273
:103DB0003946103C98470028F5D0BDE8F081104600
:103DC000002AFAD03368286802492246BDE8F0414B
:103DD000184700BFB40001000B78002B00F0C3842B
:103DE0002DE9F04F91B0904600228A46814600921C
:103DF00004E01AF8013F002B00F0D080252BF8D109
:103E00008A4500F0FD80AAEB0104D9E90030224682
:103E10009847002840F05181009A9AF800302244D7
:103E20000092002B00F0BD809AF801300AF10104E5
:103E3000002B00F0B6800021A3F12002102A0AD83E
:103E4000DFE802F0A90909A609090909090909A376
:103E500009A009099B00A3F13102082A40F2B780AA
:103E60002A2B00F0C28000262E2B00F0A5804FF0F8
:103E7000FF3B6C2B00F09980682B00F0C480782BFE
:103E800000F2EA80DFE813F08D00E800E800E800C7
:103E9000E800E800E800E800E800E800E800E800E2
:103EA000E800E800E800E800E800E800E800E800D2
:103EB000E800E800E800E800E800E800E800E800C2
:103EC000E800E800E800E800E800E800E800E800B2
:103ED000E800D401E800E800E800E800E800E800B5
:103EE000E800E800E800E800E800E800E800E80092
:103EF000E800E800E800E800E800E800E800E80082
:103F0000E800E800E800E800E800CC01E800E8008C
:103F1000E800C401BC01B401E800E800E800E800E2
:103F2000E800E800E800E800E800E800E800E80051
:103F3000E800E800E800E800AC01E800E800E8007C
:103F4000E800E800E800E800E800A401E8009C01BF
:103F50001E015E016E016601E8001E01E800E80036
:103F6000E800E8008E0186017E01E800E8007601A5
:103F7000E8005601E800E8004E0141F0100114F895
:103F8000013F59E741F00101F9E741F00601F6E789
:103F900041F00801F3E741F00201F0E78A457FF4C0
:103FA00032AF009811B0BDE8F08F63786C2B31D040
:103FB000013441F0600162E76378A3F13000092821
:103FC00004F101022BD92A2B3AD014464FE70026E0
:103FD00006EB860603EB460614F8013FA3F1300218
:103FE000092AA6F13006F3D93EE7D8F800606378D5
:103FF000002E08F10408B8BF41F00101013433E795
:104000009AF800300DE76378682B20D0013441F036
:10401000400134E7A37841F0800102342FE74FF0EC
:10402000000B0BEB8B0B03EB4B0B12F8013F2F2B11
:10403000ABF1300B40F28B82392BF2D9144618E7E2
:10404000A378D8F800B0023408F1040811E7A37887
:1040500041F02001023412E701F4E0630191B3F56D
:10406000A06F04F1010A39D000F2A381B3F5407FBB
:1040700000F0A781B3F5806F40F0E480D8F80070BD
:1040800008F10408002F40F030826D4F0625BBF187
:10409000000F02DB5D4528BF5D46019BAE428CBF31
:1040A000761B0026D90740F1C981D9E9003039468D
:1040B0002A469847002800F0D8814FF0FF3011B011
:1040C000BDE8F08F01F4E06343F4807341F42452BF
:1040D000B3F5A06F019204F1010AC5D1D8F8003000
:1040E0008DF82830019B012E354638BF0125DA07AF
:1040F00005F1FF3508F1040840F10A82D9E90030E2
:1041000001220AA998470028D7D12A4609F10401BB
:104110004846FFF73FFE009B01330028CDD1EB1846
:10412000009347E001F4E06341F4C85243F4807324
:10413000019294E701F4E06341F4106243F4807368
:1041400001928CE701F4E06341F4024243F400730E
:10415000019284E701F4E06341F4813243F4007397
:1041600001927CE701F4E06341F4007243F40073D0
:10417000019274E701F4E06341F4806243F48063E8
:1041800001926CE701F4E06341F4407243F4407340
:10419000019264E701F4E06341F4885243F48073D0
:1041A00001925CE704F1010AD8F80030009A1A6025
:1041B00008F104086378002B3FF4F3AE51461DE686
:1041C00001F4E06341F4A06243F4A063019246E786
:1041D00001F4E06341F4C13243F4007301923EE71D
:1041E00001F4E06341F4B24243F48073019236E794
:1041F00001F4E06341F4A13243F4007301922EE72D
:1042000001F4E06341F4844243F40073019226E731
:1042100001F4E06341F4424243F4007301921EE76B
:1042200001F4E06341F4E13243F40073019216E7D4
:1042300001F4E06341F4C06243F4C06301920EE70D
:10424000A8000100B3F5807FB4D1BBF1000FC0F22C
:104250005581019B23F0100301935F46019901F002
:10426000E00301F4C05211F40051079100F01681EF
:10427000402B00F0498200F20481002B00F02B82D9
:10428000202B40F0838298F9000008F10408C11740
:10429000002871F10003C0F20282CDE90201B2F5FB
:1042A000805F00F06581B2F5C05F00F0CF81B2F5AC
:1042B000006F00F09981002306939B460DF13E03A9
:1042C0000593BB4534BFA7EB0B0300230493019B6D
:1042D00041F6080203EA020141F208039942049BF5
:1042E00000F00E8191425B4404D1DDE902120A43E1
:1042F00040F0328100252F46079A72B1069A002AB3
:1043000040F02781019A02F00602022A00F02D8176
:10431000AC49062A04BF01250F462B449E428CBFA0
:10432000F31A00230293019B13F00102019207D1BB
:10433000D80640F1D681049B029902920B44049363
:10434000D9E900303DB139462A46984700287FF424
:10435000B4AED9E90030009A049F5A44102F00925D
:1043600040F2B381984E10223146103F9847002802
:104370007FF4A3AE102FD9E90030F4D892493A4621
:10438000984700287FF499AED9E9003005995A463C
:104390009847009B1D4400287FF48FAE049B2B445C
:1043A0009B46019B002B40F0C880029B5B4400931E
:1043B00000E7B3F5C06F35D0B3F5E06F3FF4F4AE6E
:1043C000F8E6019AD8F800108048814D12F4804F29
:1043D00008F104080A464FF0000314BF8646AE46B3
:1043E00000296DD00DF13B073946100902F00F0C82
:1043F00040EA03701D0902462B461EF80C0001F826
:10440000010D52EA0300F0D17D1A5BD00335782309
:10441000302201F8013C232301F8022C01F8033C6F
:10442000CF1E3AE6D9E900306A49012298470028B0
:104430007FF443AE009B01330093BBE6324609F1A3
:1044400004014846FFF7A6FC00287FF436AED9E900
:10445000003039462A46984700287FF42EAE009B4C
:104460002B441D4673190093A4E6324609F104015A
:104470004846FFF78FFC009B2B441D460028F1D0D7
:104480001BE6602B00F02781802B40F07F8108F134
:10449000070828F00708F8E80201F9E6402B00F0C9
:1044A000398115D8002B00F02681202B40F05D814A
:1044B00098F800000021CDE9020108F10408EEE6B9
:1044C0000DF13B01302301F8013C042501399EE741
:1044D000602B00F01081802B40F0478108F1070825
:1044E00028F00708F8E80201D7E63B783D461BB103
:1044F00015F8013F002BFBD1ED1BC8E50127ADE608
:10450000012B38BF0123002504932F465B44F3E6BB
:104510002A4609F104014846FFF73CFC00287FF4D5
:10452000CCADD9E9003001220AA99847009B01339C
:1045300000287FF4C2AD2B44F1E5029A09F1040191
:104540004846FFF727FC00283FF42FAFB5E5144697
:1045500095E4214F0125E0E60199204A204F11F40E
:10456000804F08BF17460225C6E61E4F0125D4E638
:10457000DDE9022313433FF49EAEDDE90223184632
:10458000002315460693DDE902230DF13E01049157
:104590008C464FEAD20B4BEA437B02F007014FEA0D
:1045A000D30E30315A4673460CF8011D52EA03010E
:1045B000EFD1049BCDF814C0CDE90250A3EB0C0B56
:1045C0007FE600BFA4000100C400010088000100D4
:1045D00074000100B000010028F40000A0000100F8
:1045E0009C00010004F60000DDE90223134300F003
:1045F000B28000230693DDE902120DF13E03089418
:1046000004938B46154605961C460997584629463D
:104610000A22002309F0B0FE303204F8012D58467A
:1046200029460A22002309F0A7FE2F465E46002FE6
:1046300008BF0A2E83460D46E8D2049B059E0594CA
:104640002246A3EB020BDDE908473AE6019B5E4AEE
:1046500013F4804F5D4B14BF15461D46DDE9022360
:1046600013434FF00003069370D0DDE902230DF1F0
:104670003E000490110902F00F0E41EA03714FEA67
:10468000131C0A46634615F80E1000F8011D52EA85
:104690000301EFD1049B0590A3EB000B11E6404210
:1046A00061EB4101B2F5805FCDE9020147D0B2F57F
:1046B000C05F37D00123B2F5006F06939BD00DF198
:1046C0003E0305934FF0000BFBE5049A002A3FF4EC
:1046D0005DAE174652E6D8F8000008F10408C1178D
:1046E000D6E5029A09F104014846FFF753FB00287A
:1046F0003FF426AEE1E4D8F8003000211846CDE9B9
:10470000020108F10408CAE5B8F9000008F104083C
:10471000C117BDE5B8F800000021CDE9020108F19C
:104720000408BCE5019B5B0403D50123264D0693D9
:104730009BE70121DDE90223244D069197E7DDE99E
:10474000022318460123154606931CE79B460DF1EC
:104750003E030593B5E54FF0000B0DF13E03CDF898
:1047600018B00593ADE518467047B2F5805F1AD0D2
:10477000B2F5C05F17D0079B06939B46002300222B
:10478000CDE902230DF13E0305939AE5B2F5805F72
:1047900005D0B2F5C05F02D0B2F5006F0ED0002395
:1047A00006939B46EAE70799069100230022CDE98C
:1047B00002230DF13E038B46059382E54FF0000B7B
:1047C000CDF818B0DAE700BF8800010074000100DE
:1047D00010B5114B002420461C6008F071FA80B916
:1047E00008F07EFA0D4A0E48002108F04FF968B92A
:1047F0000B48012108F08AF9BDE81040084808F08C
:1048000079B92246214608F0A5FFE9E700221146C2
:1048100008F0A0FFECE700BFA4040020514800000E
:10482000D4000100014B1868704700BFA4040020A9
:1048300008B5064A13680133136000F017FB00B98E
:1048400008BDBDE8084000F0E3BA00BFA4040020A2
:10485000042800D07047FFF7EBBF00BF014B18687A
:10486000C0097047A4040020054A116813685B1A48
:10487000984204D920BF13685B1A8342FAD3704769
:10488000A4040020B0F5A27F00D0704700F088BCDF
:1048900008B50A4A0A48002108F030FA20B9BDE8F4
:1048A0000840074808F078BA0022114608F052FF85
:1048B000BDE80840024808F06FBA00BF8548000014
:1048C000DC000100012302461946014808F07EBAC7
:1048D000DC0001000148002108F068BADC0001009A
:1048E000F0B583B00446FFF7F5FF1C4E1C4DB060D9
:1048F0000127AF702378BB4216D05BB1FFF7EAFF08
:10490000184AB16893685B1A034400219360A97048
:1049100003B0F0BD144800F06BFE002812DCAB7849
:10492000002BEBD103B0F0BD104B1B6813B16268D4
:10493000107898470E48012108F03EFDAB78002B17
:10494000F0D0DBE7084800F03FFE394603460DF1A2
:1049500007008DF8073008F09FFCE0E7741A00208C
:10496000681A0020341A0020AC040020340500200E
:10497000A8040020014B1860704700BF34050020D8
:1049800010B582B0034601210DF107008DF8073004
:1049900008F082FC112801D002B010BD054C00E0E7
:1049A00020BF9DF80710204600F0F6FD0028F7D044
:1049B00002B010BDAC04002030B5104D0FCD89B051
:1049C0006C460FC495E80F0084E80F000C49684658
:1049D00008F0A2FB60B980220A490B4800F0D4FD20
:1049E00008F086FD0121094808F0E6FC09B030BD59
:1049F0000022114608F0AEFEEDE700BFE400010022
:104A0000E1480000B4040020AC040020A804002009
:104A1000704700BF08B50F49002008F025FA38B9E3
:104A20000D4808F059FA60B90C4B01221A7008BD04
:104A30000022114608F08EFE074808F04DFA0028C3
:104A4000F2D00022114608F085FE044B01221A70B4
:104A500008BD00BF114A00003805002039050020BC
:104A6000024B1B7803B9704708F028BA39050020BB
:104A7000034B1B7803B97047024B187808F04EBA05
:104A8000390500203805002010B50446006830B113
:104A9000002100F0B9FA54F8040F0028F8D110BD35
:104AA000F0B5038883B0054633B14A2B18D1882965
:104AB0001BD0012003B0F0BD1B4800F0C3FC04462E
:104AC00030B1A168201D00F0A9F92468002CF8D1AC
:104AD000164B01221A704A2301202B8003B0F0BD2F
:104AE00000230380032003B0F0BD0F48019200F0C3
:104AF000A9FC04460028EED0019A031D9A4205D075
:104B00002468231D002CE6D09A42F9D10648084EAD
:104B1000214600F0E3FCD4E90523376832600BB18D
:104B2000E06998473760D6E73C0500204005002043
:104B3000D006002010B5064B064800241C7000F07B
:104B40007DFC21460448BDE8104000F05DBA00BF7E
:104B5000400500203C050020AC00002070B50E4C44
:104B6000049E25784661C0E90623044635B9A16054
:104B70000A482146BDE8704000F066BC084D094B6C
:104B80002E682B60043000F049F92E60214603485E
:104B9000BDE8704000F058BC400500203C050020F6
:104BA000D0060020AC00002010B5044C82B0246870
:104BB0000094FFF7D3FF02B010BD00BFD006002065
:104BC00070B50C4B1B7804462BB921460A48BDE84A
:104BD000704000F039BC094D094B2E682B60043041
:104BE00000F026F92E6021460348BDE8704000F031
:104BF0002BBC00BF400500203C050020D006002053
:104C0000AC00002070B50C4B1B7804462BB9214634
:104C10000A48BDE8704000F017BC094D094B2E68EA
:104C20002B60043000F00EF92E6021460348BDE8E9
:104C3000704000F009BC00BF400500203C0500208A
:104C4000D0060020AC00002010B50A4B1B780446AB
:104C50003BB9C0E9033321460748BDE8104000F0E6
:104C60003DBC043000F00AF921460348BDE810407D
:104C700000F034BC400500203C050020084B0948EA
:104C8000094910B4002203F1300443F8042BA34275
:104C900040F8042B01F8012BF7D15DF8044B704765
:104CA000741A0020341A0020681A002010B5FFF78B
:104CB000B9FD0B4B1A68D2E9003192680B44191AFE
:104CC00052B1D2E9003423441B1A9268994228BF9A
:104CD0001946002AF5D14318024A136010BD00BFDF
:104CE00048050020440500202DE9F84303880546C7
:104CF00053B3592B2BD187292ED082291FD12C4F6A
:104D0000DFF8B4803C684FF00009C4B1002603E02E
:104D1000A36826469BB11C46204600F069FA00288D
:104D2000F6D0E0682246882100F0FCF903464046B0
:104D300053B300F025FAA3682646002BEBD1592384
:104D40002B800120BDE8F883194A1360F7E70023A0
:104D500003800320BDE8F883154F3B68002013B99A
:104D6000EDE70120E3B1D96891421C469B68F8D079
:104D700000B13C60002BE2D0D3E90210904214BF96
:104D80001C46A1600B46F5E7E360A3686EB1B36013
:104D90003B68C4F808902BB1FFF788FF3C68B4E784
:104DA0003B60CCE7034A1360C9E73B60F1E700BF13
:104DB0004805002044050020BC00002010B5044632
:104DC000104800F0DDF91049E3680A684BB142B1C0
:104DD00094420FD0134601E09C420BD09B68002BFD
:104DE000FAD10A4BA2601B68E3600C60BDE810407A
:104DF000FFF75CBF054B1B68E360BDE81040FFF7A1
:104E000055BF00BFBC00002048050020D006002090
:104E1000014800F0B5B900BFBC00002010B5044641
:104E200000F0D2F92046BDE81040FFF7C7BF00BF31
:104E300010B5044600F0D0F92046BDE81040FFF759
:104E4000BDBF00BF10B5044600F0CCF92046BDE858
:104E50001040FFF7B3BF00BFC068B0FA80F0400950
:104E6000704700BFD0E9002010447047024B18681B
:104E7000003818BF012070474805002010B5124BBC
:104E800019688142044614D00B462BB19A68A2429D
:104E900006D01346002BF9D10023C4E9023310BD1C
:104EA000A2689A6049B1FFF701FF0023C4E9023309
:104EB00010BD82681A60002AF5D1044B00221A60E6
:104EC0000023C4E9023310BD48050020440500203A
:104ED0002DE9F843DFF8A880D8F800408442054661
:104EE0000F4645D0002C36D0234601E0002B32D0AF
:104EF0001B689D42FAD173B3204EAB7BD6F800906D
:104F0000F3B10023AB73002C34D0A54209D0A37BAE
:104F100013F0010F20462A464FF0870101D000F020
:104F200031F82468002CF0D1AB683BB1BD4205D00C
:104F300035600022832105F10C009847D8F8004025
:104F4000A5420AD02CB12368AB420CD01C46002CE1
:104F5000F9D1C6F80090BDE8F8832B68C8F8003096
:104F6000C6F80090F7E72B682360C6F80090F2E7D8
:104F70002346C0E7AB68002BD8D1EAE7D006002073
:104F8000D40600208368BBB170B504460B4E0220E6
:104F9000A073346004F10C000D46984702380128D4
:104FA00004D9832D02D00123A37370BD214620466E
:104FB000BDE87040FFF78CBF704700BFD0060020EF
:104FC00038B50B4A0B4B146800221A707CB10125CE
:104FD00001E024685CB1E37B002BFAD0E581204638
:104FE00000228221FFF7CEFF2468002CF3D138BDC8
:104FF000D4060020CF060020024B1878421C1A70FD
:10500000704700BFCD06002070B50E4D2C6884425D
:1050100007D00A4634B1234600E01BB11B68984212
:10502000FBD170BD0028FCD0074E04600121002395
:1050300034688173838181212860FFF7A3FF346086
:1050400070BD00BFD4060020D006002030B4074B4E
:1050500007480849084A094C8A251D700023037037
:105060000B601360237030BC704700BFCD0600207A
:10507000CE060020D4060020D0060020CC0600205A
:105080002DE9F041224D2B78FBB9224E3378C3B184
:105090002148224C027802EB420704EB87010132DF
:1050A00002F01F02013B0270886814F82770D1F8E3
:1050B0000480DBB2337058B1812F1ED0827BD207BF
:1050C0001DD428781844BDE8F081FFF779FFDCE7AC
:1050D000134A14685CB9F4E7A37B13F0010F204670
:1050E0004246394601D0FFF74DFF24685CB12B786A
:1050F000002BF1D0FFF764FFEEE7012383734246F4
:105100003946FFF73FFF337828781844BDE8F0812F
:10511000CF060020CE060020CC0600204C05002043
:10512000D406002070B40D4D2C78202C12D00C4BDE
:105130000C4E1B78234403F01F0303EB430301349D
:105140002C7006EB8304C4E9012006F8231000202C
:1051500070BC7047012070BC704700BFCE060020B5
:10516000CC0600204C05002038B5837B034CDB07C0
:10517000256801D5FFF706FF256038BDD006002061
:1051800018B1837B013B012B00D97047024A0123F0
:105190001370C373704700BFCF060020FFF778BBC2
:1051A00010B5084C206858B1D0E9013100222260C6
:1051B0009847236823B1BDE810401868FFF782BB09
:1051C00010BD00BFD806002010B541600446FFF7AF
:1051D00029FB206010BD00BFD0E9003213440360FA
:1051E000704700BF10B50446FFF71CFB206010BDE0
:1051F00010B50446FFF716FBD4E90032C3F10103F2
:10520000184482422CBF0020012010BDF8B5364D55
:105210002C78287044400346E00706D513F00107B8
:105220001AD1324EF278002A35D1A10706D513F0F3
:1052300002071AD12D4E3279002A38D1620706D5DD
:1052400013F004061AD1294C6279002A3BD1184682
:10525000BDE8F84004F04CBFFFF73CFB244A234B69
:10526000D0600122DA702B78DFE7FFF733FB204AAA
:105270001E4B106101221A712B78DFE7FFF72AFB22
:105280001B491A4A48612B78012151711846BDE823
:10529000F84004F02DBFFFF71DFB1649144BCA68F8
:1052A000F770DE682B78921B0244CA60BDE7FFF7F7
:1052B00011FB10490E4B0A6937711E692B78921B3E
:1052C00002440A61BAE7FFF705FB0A49084A2B784E
:1052D00055694A696671521B02444A611846BDE825
:1052E000F84004F005BF00BFDC060020681A00206B
:1052F000741A0020341A002008B504F0E7FE024BAF
:1053000000221A7008BD00BFDC060020024B1B788B
:105310005840FFF77BBF00BFDC060020F8B50488CB
:10532000672C07460BD0792C04D0D4B1002303801E
:105330000320F8BD852936D11C4E002333601C4D57
:105340001A4C04E00A28236812D07E2B26DD28465A
:1053500000F03AF9431C2646F4D167233B80012034
:10536000F8BDFFF749FE134A104B10701C60E6E7CA
:10537000114A10490025D554097801332846236085
:10538000FFF7D0FE0D4B2A4618688521FFF7CAFEAD
:105390000028D2D179233B800120F8BD06495A1C50
:1053A000C8542260D3E70120F8BD00BF6407002085
:1053B00068070020A41A0020E0060020D006002084
:1053C0000D2817D010B5114C237833B10A2813D00B
:1053D0000F48FFF7D5FE012010BD01460D4800F033
:1053E000DBF80028F4D1012309482370FFF7C8FE39
:1053F000012010BD002070470146064800F0CCF89F
:105400000028E5D000232370E2E700BF60070020FA
:10541000CC0000206807002008B505490548802217
:1054200000F0B2F8BDE8084003480021FFF7ECBDEA
:105430007007002068070020CC00002000230360D4
:10544000704700BF006870470368D3B110B40024F0
:1054500000E0134699421A680ED01C46002AF8D183
:1054600000230B600368C3B11A461B68002BFBD1F5
:1054700011605DF8044B70476CB1226000221A6025
:10548000EEE700230B6003684BB11A461B68002B44
:10549000FBD1116070470260F0E70160E9E701604D
:1054A000704700BF30B405684DB12B46002400E0C2
:1054B000134699421A6806D01C46002AF8D10D609E
:1054C00030BC016070473CB1226000221A60056860
:1054D0000D6030BC016070470260F6E703689BB165
:1054E00010B4002400E0134699421A6805D01C4607
:1054F000002AF8D15DF8044B704734B122600022D5
:105500001A605DF8044B704770470260F7E700BF10
:1055100003682BB100201B680130002BFBD17047C2
:105520001846704700B10068704700BF00B583B0EF
:105530002A23ADF806300DF1050007F03DFD9DF87A
:105540000530012BF7D902210DF1060007F03EFDD1
:1055500020B9BDF8060003B05DF804FB0022114637
:1055600008F0F8F8BDF8060003B05DF804FB00BFD2
:1055700008B5002007F0DEFC00B908BD0022BDE838
:105580000840114608F0E6B80023013A02710160B4
:1055900043718371704700BF10B4427983790479F5
:1055A000D31A34EA03030AD0036899544379027981
:1055B0000133134043715DF8044B01207047002014
:1055C0005DF8044B704700BF10B4817942790479CB
:1055D000521A224208D003464A1C00682240405C0E
:1055E0009A715DF8044B70474FF0FF30F9E700BF48
:1055F0004379827900799B1A184070472DE9F04170
:105600000488772C064607D07E2C37D0A4B100231F
:1056100003800320BDE8F081DFF8D0802E4D98F89C
:1056200000202E4F00233B602B6012B32C4CE2561F
:10563000002A41DB2B6832E02A4F274DFFF7DCFCC4
:10564000294B3A6818702C60002A43D02346244C1A
:10565000984604F8038000219368802098472B68BF
:1056600001332B6057F82320002AF2D1DBB21F4A06
:105670001370772333800120BDE8F0811A4B1B782B
:105680008B4216D1144D164CDFF86080134F2B68F7
:105690003A68E15C01F07F010132E1543A6098F828
:1056A0000020013393422B60C1DB3B68002BB9D152
:1056B000DFE70120BDE8F0810A4A0B4952F82320B8
:1056C00009780020FFF72EFD0028E0D17E233380EB
:1056D00001209FE71346CAE7F4070020F0070020E7
:1056E000D4240020C0010020A51A0020F8070020C3
:1056F00010B40C4B1C7854B10B4A002302E0013368
:10570000A34204D052F8041B8842F8D11C46074A31
:105710000748135D63F07F0313555DF8044BFFF7F3
:105720002FBD00BFF8070020C0010020D4240020B6
:10573000DC000020013AF0B48E18B1421DD2CF43F4
:10574000F51925F001030D1D1D448A1C12F8024CA9
:1057500012F8013C03EB04239BB2184480B283424D
:1057600088BF013002F1020288BF80B2AA42EDD1A7
:10577000F31923F00103023319448E4201D0F0BC27
:105780007047337800EB032080B2B0EB032F3CBFAF
:10579000013080B2F0BC704730B5124B124D1C780E
:1057A0002A796B79C4EB022283B013449BB2ADF823
:1057B0000630BDF80630184405F10801202280B2F9
:1057C000FFF7B8FF04F12801BDF806202944FFF7D0
:1057D000B1FF18B140BA80B203B030BD4FF6FF70D0
:1057E00003B030BD03080020BC1A00202DE9F041B1
:1057F0002F4F30493C78304E28340B1902205D7809
:105800003070ED00073502464FF0000E231801EB13
:105810000308CB5C012B0DD0632B03F0C00C19D017
:10582000ABB1BCF1800F3ED0BCF1C00F2CD0BCF1AD
:10583000400F22D098F8013002321A44D2B2AA4264
:105840004FF0010E1046E1DD3270002013E001320E
:10585000D2B2F4E7BEF1000F00D0327002F0B0FA1D
:1058600078B132783B78154913440B4402325B78A7
:105870001A4432700020BDE8F081BEF1000F00D064
:1058800032700120BDE8F081BEF1000F00D032700F
:105890000B7EFF2BF5D022440221042005F000FEF0
:1058A0000220BDE8F081BEF1000FF4D03270F2E7C3
:1058B00003080020BC1A002004080020E41A00207D
:1058C00030B4C478134A0C44E4B2D470837803EB48
:1058D0001123DBB293704578557000781070B3EBEC
:1058E000112F03D20135EDB2557085B1C9B28C428A
:1058F0000BDA0133DBB293703BB953780133DBB27F
:10590000537013B913780133137030BC70470130F2
:105910001070EBE7B01A002010B5094C236801465F
:1059200003F11400FFF7CCFF064A2368507814787F
:105930009178D2781C7558759975DA7510BD00BFCD
:10594000E01F0020B01A00203A20FFF725BF00BF5B
:1059500008B505F05FFC05F089FE05F0C5FF0F49AD
:105960000F4B00220A804A808A80CA800A814A81BD
:105970008A81CA8103F5F07183F82520303399427A
:10598000FAD1084A084B4FF48061118003F5A071E9
:1059900000221A8220338B42FBD108BDCC2100208B
:1059A000E41F002000080020E021002070B5114C09
:1059B000217841B1104D2A8801F12703934203DB7E
:1059C00000232B80237070BD0C4E283A521A3046AB
:1059D000314408F093FE22782B889B1A9BB2A3F1E6
:1059E0002802101200212B8006F8232C06F8240C24
:1059F000217070BD03080020A81A0020E41A0020BE
:105A0000074A002332F8021F814203D00133082BDA
:105A1000F8D17047034A002122F81310704700BFE5
:105A2000CA210020CC2100202DE9F04F042885B0A8
:105A300000F00581DFF854B2DFF854A28A4E8B4A99
:105A4000DBF80070CAF800200328326000F095806F
:105A5000022800F02381052800F0768112F83C3CF2
:105A600003F0F003602BA2F13C0440F07281804D02
:105A700023796179288801EB032787424FEA0323C2
:105A800000F3BE81207A28310B44FF282B8000F0E0
:105A9000B781784FDFF8FC91774BA179363A3A60BD
:105AA000002289F800201A70C1B901221A700193EE
:105AB000FFF79CFE0128019B00F05A82022800F0AB
:105AC000608358B999F8002002F128012144083276
:105AD0004878396002EBC00289F800200293674BD6
:105AE0000193184605F0CEF9029B002800F06D8363
:105AF0003A68984611783C2900F2DE81DFE811F01F
:105B0000F001DC01DC01DC01DC01DC01D202DC01A2
:105B1000DC01DC01DC01DC01DC01DC01DC01DC019D
:105B2000DC018102DC01DC01DC01DC01DC01DC01E7
:105B3000DC01DC01DC01DC01DC01DC01DC01DC017D
:105B4000DC01DC01DC01DC01DC01DC01DC01DC016D
:105B5000DC01DC01DC016502FC01DC01DC01DC01B3
:105B6000DC01DC01DC01DC01DC01DC01DC01DC014D
:105B7000DC01DC012D02FC014E0297F825C00CF07F
:105B80000F0CBCF1030F00F0EB80BCF1020FDFF84B
:105B90000881374D5BD1A2F12403A2F13C040193AB
:105BA000374BE3634022602384F835C02A8084F8B1
:105BB00034303B7D84F830307B7D84F83130BB7DE0
:105BC00084F83230FB7D84F833303B7E84F82C300F
:105BD0007B7E84F82D30BB7E84F82E30FB7E84F8EB
:105BE0002F303B8A23857B8A638597E80F00019ECF
:105BF00086E80F002149A1F1100005F063FA97F83B
:105C00002530D9064CBF00234FF48043E3862B8810
:105C10001C4A283B63711B12127923710620002352
:105C2000E271A071A363FFF7B7FDC0432087602333
:105C30002360002388F8003005B0BDE8F08FDFF85E
:105C400058800B4D10490B88002B40F09980DFF8ED
:105C50004490094B00222A8089F800201A7088F8A5
:105C6000002005B0BDE8F08FAC1A0020F81A002023
:105C7000A81A0020D41F002002080020D41A0020F7
:105C800002040040E0240020DC210020E01F00206E
:105C9000DC1F002003080020D01F0020B648B74DAD
:105CA000C378DFF8F092B64901330022DBB2C3704B
:105CB0002A8089F800200A8033B983780133DBB267
:105CC0008370002B00F0A28097F8253003F0FD02CE
:105CD000052A00F08680002B00F08E80BA8B002A07
:105CE00040F0B68003F00F0CBCF1030F40F084804D
:105CF000DFF8A4820191082388F8003000F0B2FF99
:105D0000019998F8003013F0200240F03D82D80647
:105D100000F1A1820A88002A40F0AD823368CAF8F7
:105D2000003087F8272098F800309E078FD5954CD3
:105D300010223C2384F8352004F1180201922B80B4
:105D4000502384F8343034E78F4B1B681B8A002BB8
:105D500069D1DFF84482894DDFF838928B4B79E7BF
:105D6000BB8BDFF83482854D002B7FF470AF844904
:105D70000191082388F8003000F074FF0199C0E712
:105D8000814A804C126803F1080149BA0020167D4F
:105D9000A185E0853033118A21859BB2A3F12801CA
:105DA000508AE6710F1211262B8060856171277170
:105DB000A6710FCA04F1180585E80F00294604F101
